:1000000042C0B4C15BC05AC059C058C057C056C0E6
:1000100055C054C053C052C051C050C04FC04EC054
:100020004DC04CC04BC004030904180375006600A2
:100030006F006200750069006C006400650072006A
:10004000730018034D006F0074006F0072004400CD
:100050007200690076006500720012011001FF0055
:100060000008C016DC0500010102000109021900A8
:1000700001010080140904000001000000000705D0
:10008000810308000A0011241FBECFE5D4E0DEBFC3
:10009000CDBF10E0A0E6B0E0E6EAF6E002C00590D1
:1000A0000D92A037B107D9F710E0A0E7B0E001C08A
:1000B0001D92AB3AB107E1F7E2D2F3C2A1CF85B707
:1000C000826085BF8BB780648BBF8BE48093810097
:1000D0008AE58093800008951F93FC01162F80917C
:1000E000800084FF07C08091810098E88927809371
:1000F000810003C08AE580938000812FA2E8B0E0F0
:1001000091919D9381501816DCF382E890E0612F65
:1001100029D11C5F109380001F9108951F93CF93E6
:10012000DF9380919100835087FD99C090918E005C
:1001300020918D002D3209F090C0883009F08DC0DB
:10014000CCE0D0E0C91BD109CB56DF4F83EC8093C4
:1001500075008AE580936000109270008881807637
:1001600031F0CE016DD28F3F09F467C06DC09A8126
:1001700010927E008981882331F410927F002EE74F
:1001800030E082E055C0853019F4909392004DC064
:100190008630B1F58B81813041F48AE590E090930F
:1001A000900080938F0082E127C0823041F48CE67A
:1001B00090E09093900080938F0089E11DC0833080
:1001C000D1F48A81882341F486E290E090939000F4
:1001D00080938F0084E010C0813019F48AE290E0AF
:1001E00004C0823041F482E490E0909390008093C8
:1001F0008F0088E101C080E090E49093700024C0FB
:10020000883019F424E930E009C0893019F490935A
:1002100094000BC08A3021F42EE730E081E008C062
:100220008B3019F48BE4809381002EE730E080E07E
:100230003093900020938F0007C0988197FD8E81A6
:1002400090E89093700006C09F81992319F49E81D5
:10025000981708F0982F9093610010929100809168
:10026000600084FF5CC0809161008F3F09F457C03B
:10027000182F893008F018E0811B8093610080916D
:10028000750098E88927809375001123B9F1909142
:10029000700097FF08C086E790E0612FB7D1182F54
:1002A0008930B8F52BC020918F0030919000812FBC
:1002B000815096FF10C090E0BC0169587F4FA901A2
:1002C000C6E7D0E0FA01A491A9934F5F5F4FC6172C
:1002D000D707C1F70CC090E0AC0149585F4FD90176
:1002E000E6E7F0E06D916193E417F507D9F7019621
:1002F000820F931F9093900080938F0086E790E089
:10030000612F30D01C5F1C3041F08FEF8093610073
:1003100004C08FEF809361001EE11093600084E1C0
:1003200090B3947131F48150D9F7109292001092E9
:100330008C00DF91CF911F910895A82FB92F80E0F5
:1003400090E041E050EA60956F5F58F42D9138EFEE
:1003500082279795879510F0842795273F5FC8F3EC
:10036000F3CF0895EADF8D939D930895CF93CFB790
:10037000CF93C395849BE9F7849B09C0849B07C0F6
:10038000849B05C0849B03C0849B01C0A3C0DF93F2
:10039000C0918E00DD27CB56DF4F849B02C0DF91DA
:1003A000EBCF2F930F931F9300B32FEF04FB20F994
:1003B0004F933F9310B34FEF012704FB21F93BE02C
:1003C00031C04E7F012F10B3216028C0102F4D7F08
:1003D0002260000000B329C04B7F2460012F000081
:1003E00010B32BC010B3477F28602AC04F7E00B3E4
:1003F00020612CC04F7D10B320622FC04F7B00B313
:10040000206432C0422700B349934FEF0000102709
:1004100014FB20F910B31471C9F1297F91F201275F
:1004200004FB21F900B3237F89F2315058F11027E2
:1004300014FB22F910B3277E79F2012704FB23F97C
:100440002F7C81F200B3102714FB24F92F7971F26D
:1004500000C010B3012704FB25F92F7359F200C027
:1004600000B3102714FB26F9223040F200C010B36D
:10047000012704FB27F9243028F64F77206810B3B2
:100480000000F9CF10E41ABF002719C03B50319586
:10049000C31BD04010E41ABF0881033CF9F00B34B1
:1004A000E9F020918C001981110F1213EDCF4A81D0
:1004B000441F093641F10D3211F0013E29F7009336
:1004C00093003F914F911F910F912F91DF91CAB7E8
:1004D000C6FD4FCFCF91CFBFCF91189520919300FC
:1004E000222379F310919100112369F534306AF1D8
:1004F0003093910020938D0010918E003BE0311BD2
:1005000030938E0022C0009191000130E4F40AE59E
:100510004F7049F43091600034FD19C000936000C1
:10052000C5E7D0E018C03091800034FD10C00093C2
:100530008000C1E8D0E00FC02795A8F45150A9F47D
:10054000220F0000F9CF4AE503C042ED01C0432F5E
:10055000C4E1D0E032E011B31461949A11BB02B34C
:1005600020E414E15F93012756E002BB279520F4B5
:10057000515021F4220FF9CF012756E000003B5AD9
:1005800002BBD0F2279528F4515029F4220F000025
:10059000F9CF012756E0279502BB20F4515021F4F2
:1005A000220FF9CF012756E02991332302BB21F610
:1005B0000B7E10919200110FC651D04002BB11F07A
:1005C00010938C0010E41ABF006111B31B7E402F02
:1005D0004B7E5F9100C000C002BB11BB42BB71CF1C
:1005E0002091720080917100822B90916200913075
:1005F00011F485BB08959091730090FD02C085BBF6
:1006000001C025BB91509093730008959C01909177
:100610007400862F961708F4892F981B9093740006
:1006200040E050E00AC0F901E40FF51FDA01AD59CE
:10063000BF4F9C9190834F5F5F4F4817A0F3089581
:10064000FC018181282F2F71982F90769695909399
:100650007200982F9C7083709C3011F4833019F0D5
:10066000892B80937100822F8071803121F481E089
:100670008093620002C01092620080E008958FEFC4
:1006800084BB1DDD8C9A80E028EB3BE003C0F901C0
:100690003197F1F78150D9F78C9878943FDDA0DF3E
:0606A000FDCFF894FFCF2E
:1006A6005AFF0100000000000000000000000000EA
:00000001FF
